:10000000D6C00000FCC00000FAC00000F8C000002C
:10001000F6C00000F4C00000F2C00000F0C0000014
:10002000EEC00000ECC0000017C7000080C7000051
:10003000E6C00000E4C00000E2C00000E0C0000034
:10004000DEC00000DCC00000DAC00000D8C0000044
:10005000D6C00000D4C00000D2C000006CC60000B2
:10006000CEC000000C9440090C9467090C94A909B7
:10007000C6C00000C4C00000C2C00000C0C0000074
:10008000BEC00000BCC00000BAC00000B8C0000084
:10009000B6C00000B4C00000B2C00000B0C0000094
:1000A000AEC00000ACC00000AAC00000000100000B
:1000B000E2001200020000F4007300220100670158
:1000C0002100210100500109000300008801040102
:1000D0000309048C011801C13601C02601813601D3
:1000E00080361201000200000040C01685040001A5
:1000F0000001000109027300020100C0320904007E
:10010000000201030000072401000141000624024F
:100110000101000624020202000924030103010276
:100120000100092403020401010100090504024041
:1001300000000000052501010109058302400000BF
:10014000000005250101030904010002030000006D
:10015000092111010001222100070581034000014E
:100160000705020320000206C9FF0904A15C750807
:10017000150026FF009540097581029520097691AA
:100180000295040976B102C004030904180354005F
:10019000650065006E007300790020004D00490085
:1001A000440049000000A6059209990CC4051124D9
:1001B0001FBECFEFDAE0DEBFCDBF11E0A0E0B1E0BF
:1001C000EEE0FAE102C005900D92AC3BB107D9F721
:1001D00012E0ACEBB1E001C01D92A73CB107E1F722
:1001E00011E0CCEAD1E004C02297FE010E94C00CCD
:1001F000C63AD107C9F70E94F6090C94FB0C00CF50
:10020000FB01DC0101900D920020E1F70895AEE0C2
:10021000B0E0EDE0F1E00C94D20C0D891E8986E08F
:100220008C831A8309838FEF9FE79E838D839E01C2
:10023000275E3F4FCE0101966F89788DA9010AD0C4
:100240002F813885020F131FF80110822E96E4E0EB
:100250000C94EE0CABE0B0E0E0E3F1E00C94C40CE5
:100260003C012B015A01FC0117821682838181FD1A
:1002700003C06FEF7FEFB9C19AE0892E1E01089489
:10028000211C311CF3012381F20123FD859123FF01
:1002900081912F01882309F4A5C1853239F423FD0A
:1002A000859123FF81912F01853221F490E0B301E4
:1002B000B7D1E8CF982FFF24EE249924FFE1FF1552
:1002C000D0F09B3269F09C3228F4903259F093328E
:1002D00091F40EC09D3249F0903369F441E024C09E
:1002E00052E0F52A84E0F82A28C098E0F92A25C0CF
:1002F000E0E1FE2A22C0F7FC29C0892F80538A3012
:1003000070F4F6FE05C0989C902C1124980E15C030
:10031000E89CE02C1124E80EF0E2FF2A0EC09E3289
:1003200029F4F6FC5FC140E4F42A07C09C3619F4B6
:1003300050E8F52A02C0983649F4F20123FD959160
:1003400023FF91912F01992309F0B8CF892F85546C
:10035000833018F08052833038F444E050E0A40E2B
:10036000B51E5FE359830FC0933631F0933779F0B0
:10037000933509F052C01FC0F5018081898342E0A6
:1003800050E0A40EB51E610101E010E011C0F501BE
:10039000C080D180F6FC03C06FEF7FEF02C0692DF3
:1003A00070E042E050E0A40EB51EC6012ED18C01D3
:1003B0005FE7F52213C0F501C080D180F6FC03C0D1
:1003C0006FEF7FEF02C0692D70E042E050E0A40EB5
:1003D000B51EC6010FD18C0150E8F52AF3FE06C008
:1003E00018C080E290E0B3011BD1EA948E2D90E01A
:1003F00008171907B0F30DC0F601F7FC8591F7FE59
:1004000081916F0190E0B3010BD1E110EA940150AA
:1004100010400115110581F7E2C0943611F09936AC
:1004200061F5F7FE08C0F5012081318142815381D9
:1004300084E090E00AC0F501808191819C0144270D
:1004400037FD4095542F82E090E0A80EB91E9FE63C
:10045000F92257FF09C050954095309521953F4F9F
:100460004F4F5F4FE0E8FE2ACA01B901A1012AE01F
:1004700030E002D1D82ED2183FC0953729F41F2D75
:100480001F7E2AE030E01DC01F2D197F9F3661F0CE
:10049000903720F4983509F0A5C00FC0903739F097
:1004A000983709F09FC004C028E030E00AC010610E
:1004B00014FD146020E130E004C014FD166020E15A
:1004C00032E017FF08C0F50160817181828193815C
:1004D00044E050E008C0F50180819181BC0180E0DA
:1004E00090E042E050E0A40EB51EA101C5D0D82E88
:1004F000D2188FE7F82EF122F6FE0BC05EEFF52240
:10050000D91438F4F4FE07C0F2FC05C08FEEF822CF
:1005100002C01D2D01C0192DF4FE0DC0FE01ED0D10
:10052000F11D8081803319F499EEF92208C01F5F14
:10053000F2FE05C003C08F2D867809F01F5F0F2DD6
:10054000F3FC13C0F0FE0EC01E1510F09D2C0AC067
:100550009D2C9E0C911A1E2D05C080E290E0B301E7
:100560005FD01F5F1E15C8F304C01E1510F4E11AFA
:1005700001C0EE2404FF0EC080E390E0B30150D030
:1005800002FF1BC001FD03C088E790E00EC088E5B4
:1005900090E00BC0802F867881F001FF02C08BE2D3
:1005A00001C080E2F7FC8DE290E0B30139D005C0D4
:1005B00080E390E0B30134D09A94D914C8F3DA946C
:1005C000F101ED0DF11D808190E0B30129D0DD2016
:1005D000B1F705C080E290E0B30122D0EA94EE20AA
:1005E000C9F750CEF30166817781CB012B96E2E10A
:1005F0000C94E00CFC010590615070400110D8F79C
:10060000809590958E0F9F1F0895FC01615070405A
:1006100001900110D8F7809590958E0F9F1F089537
:100620000F931F93CF93DF938C01EB018B8181FF9D
:100630001BC082FF0DC02E813F818C819D812817B8
:10064000390764F4E881F9810193F983E88306C0EE
:10065000E885F985802F0995892B31F48E819F815A
:1006600001969F838E8302C00FEF1FEFC801DF91B9
:10067000CF911F910F910895FA01AA27283051F1C7
:10068000203181F1E8946F936E7F6E5F7F4F8F4FC3
:100690009F4FAF4FB1E03ED0B4E03CD0670F781F22
:1006A000891F9A1FA11D680F791F8A1F911DA11D07
:1006B0006A0F711D811D911DA11D20D009F4689440
:1006C0003F912AE0269F11243019305D3193DEF6E8
:1006D000CF010895462F4770405D4193B3E00FD09E
:1006E000C9F7F6CF462F4F70405D4A3318F0495D89
:1006F00031FD4052419302D0A9F7EACFB4E0A6956C
:100700009795879577956795BA95C9F7009761058D
:10071000710508959B01AC010A2E069457954795E3
:1007200037952795BA95C9F7620F731F841F951FD8
:10073000A01D08950895EF92FF920F931F93CF93FA
:10074000DF93E82F7A018AE3D8018C93322F329518
:100750003F70832F90E00A971CF0832F895C02C0C2
:10076000832F805DD80111968C93422F50E0CA01EF
:100770008F709070322F3F700A971CF0832F895C26
:1007800002C0832F805DD80112968C93372F32954B
:100790003F70832F90E00A971CF0832F895C02C082
:1007A000832F805DD80113968C93872F90E08F70F4
:1007B0009070372F3F700A971CF0832F895C02C01E
:1007C000832F805DD80114968C93362F32953F701D
:1007D000832F90E00A971CF0832F895C02C0832F3F
:1007E000805DD80115968C93862F90E08F70907065
:1007F000362F3F700A971CF0832F895C02C0832F2D
:10080000805DD80116968C933E2F32953F70832FD2
:1008100090E00A971CF0832F895C02C0832F805DD3
:10082000D80117968C938E2F90E08F7090703E2F8A
:100830003F700A971CF0832F895C02C0832F805D74
:10084000AE2FB0E0A60FB11DA20FB11DA70FB11DB5
:10085000F8018087E80160E070E024C0F701E60F4E
:10086000F71FE0812E2F22952F70822F90E00A979C
:100870001CF0822F895C02C0822F805D89878E2FB9
:1008800090E08F7090702E2F2F700A971CF0822F9F
:10089000895C02C0822F805DAE0FB11D8A876F5FB9
:1008A0007F4F229664177507CCF29A01220F331FEF
:1008B000275F3F4F5A2F5195452F42954F70842FF8
:1008C00090E00A971CF0842F895C02C0842F805D21
:1008D000F801E20FF31F8083B9016F5F7F4F852F0F
:1008E00090E08F709070252F2F700A971CF0822F48
:1008F000895C02C0822F805D060F171FD8018C9380
:10090000862F8F5FDF91CF911F910F91FF90EF9016
:100910000895EF92FF920F931F93AC01262F9FE350
:10092000E92E91E0F92E81E060E070E0870103DFBD
:10093000682F8CEF9FEFE80EF91EF701E60FF11D0F
:1009400087EF848315826B5F85E792E0A701AED5C0
:100950001F910F91FF90EF9008951F93CF93DF9316
:1009600085E792E060E0F0D5882309F451C08091DA
:100970007602873009F04CC01091770200D000D089
:1009800000D0EDB7FEB73196CCEBD1E0ADB7BEB736
:100990001296DC93CE93119780E091E0938382834B
:1009A0001483158234DCBC018093E4017093E5016B
:1009B0008DB79EB706960FB6F8949EBF0FBE8DBF3B
:1009C000CE01A7DF1630A0F080917A028E3701F5B4
:1009D00080917C028630E1F480917D028130C1F407
:1009E00085E792E06FE04BE851E060D581E010C010
:1009F000123071F4CE016CE171E002DC84E190E030
:100A00009093E5018093E401CE0164E170E081DF21
:100A1000DF91CF911F910895AF92BF92CF92DF9255
:100A2000EF92FF920F931F930FB6F894A090F301EB
:100A3000B090F401C090F501D090F6010FBEAA2746
:100A400097FDA095BA2FA80EB91ECA1EDB1E0FB6C1
:100A5000F8948091F3019091F401A091F501B09187
:100A6000F6010FBE0BC0E816F9060A071B0734F0A3
:100A700074DFD801C7010F96A11DB11D0FB6F89400
:100A8000E090F301F090F4010091F5011091F6016E
:100A90000FBEEA14FB040C051D052CF31F910F91EA
:100AA000FF90EF90DF90CF90BF90AF9008950F939D
:100AB0001F93CF93DF9381E08093E601CCEBD1E0ED
:100AC00001E311E039C085E792E04FE721E020D54E
:100AD00084E690E0A1DF85E792E06091E60140E0E6
:100AE00021E024D584E690E097DF00D000D000D04C
:100AF000EDB7FEB73196ADB7BEB71296DC93CE9385
:100B00001197138302838091E601848315827FDB32
:100B1000BC018093E4017093E5018DB79EB7069602
:100B20000FB6F8949EBF0FBE8DBFCE01F2DE80914E
:100B3000E6018F5F8093E6016091E6016E3708F46D
:100B4000C2CFDF91CF911F910F910895E7EEF1E0B1
:100B500088E0DF011D928A95E9F71092E90188EE9D
:100B600093E0A0E0B0E08093EA019093EB01A093C2
:100B7000EC01B093ED011092EE018FE991E09093BA
:100B8000E8018093E70108950895E93150F4EE0FEC
:100B9000EE52FA4F0994E93120F4EE0FEC5FF94F71
:100BA00009940895289A0895299A08952A9A0895EB
:100BB0002B9A08952F9A6AC0589A58C0599A089546
:100BC0005A9A08955B9A0895469A66C0479A6AC0F1
:100BD0005E9A08955F9A6CC02C9A08952D9A4AC027
:100BE0002E9A4EC08F9A08958E9A08958D9A0895E0
:100BF0008C9A0895899A0895889A08955C9A089520
:100C00005D9A0895769A08952898089529980895E8
:100C10002A9808952B9808952F9838C0589826C080
:100C2000599808955A9808955B980895469834C045
:100C3000479838C05E9808955F983AC02C980895F8
:100C40002D9818C02E981CC08F9808958E980895DE
:100C50008D9808958C980895899808958898089596
:100C60005C9808955D98089576980895E4B5EF7DB1
:100C7000E4BD0895E0918000EF77E093800008954F
:100C8000E0918000EF7DE09380000895E091800086
:100C9000E77FE09380000895E0919000EF77E09384
:100CA00090000895E091C000EF77E093C0000895B0
:100CB000E091C200E77FE093C20008951DBA109250
:100CC00068001CBC10BE1FBA10927A0010926E0011
:100CD00010926F0010927100109272001092C90071
:100CE000ECEBF0E0108214B817B81AB81DB810BABF
:100CF000108215B818B81BB81EB811BA0895F89428
:100D000080E29EE40197F1F781E08093E00080E2C9
:100D10008093D80080E69AEE0197F1F7CFDF0C942C
:100D2000003FFFCFF894CADF80E69AEE0197F1F713
:100D30000C940000FFCF8F938FB78F938091F701B2
:100D40008D5F8D37D0F48093F7018091F3018F5F31
:100D50008093F301D8F08091F4018F4F8093F401D8
:100D6000A8F08091F5018F4F8093F50178F0809184
:100D7000F6018F4F8093F60109C08D578093F701DC
:100D80008091F3018E5F8093F30128F78091EF014A
:100D90008C5F8093EF0158F08091F0018F4F80932A
:100DA000F00128F08091F1018F4F8093F1018F9134
:100DB0008FBF8F911895F894E1E6F0E020E820834A
:100DC000108283E084BD85BDEEE6F0E08081816025
:100DD000808391E09093800082E0809381009093E3
:100DE0009000809391008093C00084E08093C100C4
:100DF0009093C2009093C3001092C40086E8809341
:100E00007A0020937B0010927E0010927D0002D029
:100E1000789408958091D80087FF02C085FF1BC099
:100E200081E08093D70080EA8093D80082E189BD79
:100E300009B400FEFDCF80E98093D8001092E00055
:100E40001092C7021092C8021092C9021092E100DB
:100E50008CE08093E20008951F920F920FB60F92DC
:100E600011248F939F938091E1001092E100982FBD
:100E700083FF0FC01092E90081E08093EB00109295
:100E8000EC0082E38093ED0088E08093F000109204
:100E9000C70292FF24C08091C702882301F180918C
:100EA000C902882391F081508093C902882369F494
:100EB00081E08093E90002C01092F1008091E80087
:100EC00085FDFACF8AE38093E80083E08093E90010
:100ED0008091F200882319F08AE38093E80090FF64
:100EE0000CC080E18093E2001092C70281E0809301
:100EF000C80280EA8093D80019BC8091C802882378
:100F000079F094FF0DC082E189BD09B400FEFDCFE8
:100F100080E98093D8008DE08093E2001092C802AF
:100F20009F918F910F900FBE0F901F9018951F9259
:100F30000F920FB60F9211242F933F934F935F930D
:100F40006F937F938F939F93AF93BF93EF93FF9391
:100F50001092E9008091E80083FF3EC13091F100DA
:100F60009091F1004091F1005091F1006091F100F9
:100F70007091F100A091F100B091F10082EF8093A7
:100F8000E800963009F044C0ECEAF0E020E08591FA
:100F900095918417950711F0359617C08591959115
:100FA0008617970711F0339610C02591359144911B
:100FB000CD01AF3FB10519F010F08FEF90E084172D
:100FC00008F4482FF9015EEF04C02F5F2630F9F6D0
:100FD00003C18091E800282F30E0C901857090702E
:100FE000892BB9F322FDFBC0242F413408F020E403
:100FF000922F04C085918093F10091509923D1F7ED
:10100000421B5093E800442321F7203411F3E7C03A
:10101000953061F48EEF8093E8008091E80080FFC6
:10102000FCCF842F80688093E300D9C09930F9F415
:10103000332309F06FC04093C7021092C9028EEFAC
:101040008093E800E6EDF0E091E09093E90085916F
:101050008093EB00882331F085918093EC0085919B
:101060008093ED009F5F953081F78EE14EC0983000
:1010700061F4303809F04EC08091E80080FFFCCF69
:101080008091C7028093F1001BC09923E9F48091FD
:10109000E80080FFFCCF323811F080E00DC0609393
:1010A000E9008091EB0090E025E0969587952A95E0
:1010B000E1F781701092E9008093F1001092F10045
:1010C0008EEF8093E8008BC0913011F0933011F5D2
:1010D000323001F541155105E9F4262F2F77822F83
:1010E00081508630B8F48EEF8093E8002093E900B9
:1010F000933009F471C089E18093EB0081E090E0C6
:1011000002C0880F991F2A95E2F78093EA00109297
:10111000EA0065C06130710509F052C0913019F5DF
:10112000313A09F059C04A2F5EEF8091E800282F2C
:1011300030E0C90185709070892BB9F322FD4FC052
:10114000942F413408F090E4892F03C01092F100ED
:1011500081508823D9F7491B5093E800442329F78D
:10116000903419F33CC0993059F53132A9F540500B
:10117000534091F5149781F58091E80082FFFCCFF0
:101180009091F1002091F1003091F1004091F10037
:101190008BEF8093E8008EEF8093E800993A39F462
:1011A0002534D1F4323CC1F44B36B1F4A8DD9B3880
:1011B00099F4253C89F43D3179F4403769F40BC04A
:1011C000993C51F4303441F48EEF8093E8008091E3
:1011D000E80080FFFCCFA6DD81E28093EB00FF9169
:1011E000EF91BF91AF919F918F917F916F915F919F
:1011F0004F913F912F910F900FBE0F901F90189518
:1012000090912B0280912C02292F30E0482F50E042
:10121000981710F4205C3F4F241B350BC90108952B
:1012200080912B02E0912C028E1719F4EFEFFFEF63
:1012300006C0F0E0E35DFD4F8081E82FF0E0CF01D4
:10124000089590912B0280912C02981719F42FEF9A
:101250003FEF0FC020912C022F5F203408F020E0D8
:10126000E22FF0E0E35DFD4F808120932C02282FD8
:1012700030E0C9010895809100028823E1F70895C4
:101280001F920F920FB60F9211242F938F939F935B
:10129000EF93FF932091CE0090912B029F5F9034AB
:1012A00008F090E080912C02981739F0E92FF0E0D7
:1012B000E35DFD4F208390932B02FF91EF919F916F
:1012C0008F912F910F900FBE0F901F9018951F9226
:1012D0000F920FB60F9211248F939F93EF93FF936A
:1012E0009091010280910202981721F488ED809379
:1012F000C9000FC0909102029F5F983208F090E001
:10130000E92FF0E0ED5FFD4F80818093CE00909358
:101310000202FF91EF919F918F910F900FBE0F905E
:101320001F9018951092FA0188EE93E0A0E0B0E0CB
:101330008093FB019093FC01A093FD01B093FE010B
:101340001092FF018FE991E09093F9018093F801E9
:1013500008951F920F920FB60F9211248F93EF935F
:10136000FF931092000280919A018F3F29F08091A3
:101370009A01E82FF0E00FDCFF91EF918F910F9031
:101380000FBE0F901F901895FC018091C90083FD3E
:1013900005C081E0828320E030E026C080919A0180
:1013A0008F3F49F080910002882329F480919A01AF
:1013B000E82FF0E0EADB909101029F5F983208F09D
:1013C00090E0809102028917E1F3E92FF0E0ED5FF0
:1013D000FD4F608381E0809300029093010288EFCB
:1013E0008093C90021E030E0C9010895E4DCA2D96E
:1013F0005EDBFECFCF92DF92EF92FF920F931F93AF
:10140000CF93DF937C016B018A01C0E0D0E00FC075
:10141000D6016D916D01D701ED91FC910190F081A4
:10142000E02DC7010995C80FD91F015010400115C3
:10143000110571F7CE01DF91CF911F910F91FF90B0
:10144000EF90DF90CF9008950F938091C70288238B
:1014500059F13FB7F89483E08093E9009091E4005C
:101460009E5F53E08091E80085FD0EC03FBF8091F4
:10147000E4008917C9F08091C7028823A9F03FB71B
:10148000F8945093E900EECF6093F1004093F1009F
:101490002093F1000093F1008091E80085FD03C0E6
:1014A0008AE38093E8003FBF0F910895EF92FF9287
:1014B0000F931F93CF93DF937C01162FEA0108C08F
:1014C000C70164E0488129810A81BEDF2396135059
:1014D0001430B0F7133031F4C70167E04881298137
:1014E0000A810EC0123029F4C70166E048812981C3
:1014F00006C0113031F4C70165E0488120E000E00A
:10150000A3DFDF91CF911F910F91FF90EF9008958E
:101510000F93362F042F21502F7020693F770F77BC
:1015200069E0422F232F90DF0F9108950F93362FFC
:10153000042F21502F7020683F770F7768E0422FEB
:10154000232F82DF0F910895FF920F931F93CF9364
:10155000DF93EC019FB7F8948091C702882311F4C0
:101560009FBF3EC184E08093E9002BE68091E800B4
:1015700085FD07C082FF03C02093E800F7CF9FBF1F
:101580002EC13091F1002091F1000091F100F09016
:10159000F1008091E80085FD03C08BE68093E800B0
:1015A0009FBF932F9F70122F1F701F5F892F88502E
:1015B000873008F09BC0662319F0611709F00FC14E
:1015C000822F807F983059F4803809F008C1198241
:1015D000CF5BDF4FE881F981C154D0402BC09930F7
:1015E000E1F4803909F0FBC0FF2049F081E08983F4
:1015F000CD5BDF4FE881F981C354D0401BC0198215
:10160000CF5BDF4FE881F981C154D040309709F4B6
:1016100069C0812F602F40E013C09A3099F4803A5E
:1016200009F0DDC082E08983CB5BDF4FE881F9817F
:10163000C554D040309709F455C0812F602F4F2DED
:10164000099550C09B3061F4803B09F0C8C083E02D
:101650008983C95BDF4FE881F981C754D040EACF65
:101660009C3061F4803C09F0BAC084E08983C75B98
:10167000DF4FE881F981C954D0400DC09D3089F415
:10168000803D09F0ACC085E08983C55BDF4FE88110
:10169000F981CB54D040309729F1812F602F0995E3
:1016A00021C09E3009F09BC0803E09F098C086E0C2
:1016B0008983C35BDF4FE881F981CD54D0403097F7
:1016C00089F06F2D70E06F7770707695762F6627B2
:1016D00077956795802F90E08F779070682B792BA6
:1016E000812F099518830A83FB8259C0943019F51C
:1016F000DE01A05CBF4F8C918C3330F4FE01E80F0B
:10170000F11D24838F5F8C93DE01A05CBF4F8C9111
:101710008C3330F4FE01E80FF11D04838F5F8C934E
:10172000FE01E05CFF4F80818C3308F058C0C80F89
:10173000D11DFC8243C0892F8550833090F5DE0196
:10174000A05CBF4F8C918C3330F4FE01E80FF11D8B
:1017500024838F5F8C93963060F0DE01A05CBF4FD6
:101760008C918C3330F4FE01E80FF11D04838F5F00
:101770008C93973061F4DE01A05CBF4F8C918C3369
:1017800030F4FE01E80FF11DF4828F5F8C93FE01AF
:10179000E05CFF4F80818A83108287E0898381E04B
:1017A0001FC09F30E1F4FE01E05CFF4F8081882381
:1017B00041F08C33A0F4C80FD11D2C838F5F808340
:1017C0000EC088E08983C15BDF4FE881F981CF5487
:1017D000D040309709F486CF822F099583CF80E0DF
:1017E000DF91CF911F910F91FF9008952FB7F8943B
:1017F0008091C702882341F082E08093E9003BE6B4
:101800008091E80085FD03C02FBF90E00FC090914C
:10181000F100992319F43093E800F2CF8091E800A9
:1018200085FD03C08BE68093E8002FBF892F0895C4
:101830002091C602222349F4D9DF882319F42FEF1F
:101840003FEF04C08093C602282F30E0C9010895FD
:101850002091C602222319F01092C60207C0C6DFEB
:10186000882319F42FEF3FEF02C0282F30E0C90181
:1018700008959C018091C602882349F4C901B6DF0E
:10188000882319F420E030E004C08093C60221E0F0
:1018900030E0C90108958091C702882371F09FB795
:1018A000F89482E08093E9002BE602C02093E800E0
:1018B0008091E80085FDFACF9FBF1092C60208957F
:1018C000FC018091C702882371F12FB7F89481E061
:1018D0008093E9009091E400975E31E08091E80008
:1018E00085FD0EC02FBF8091E4008917E1F0809143
:1018F000C7028823C1F02FB7F8943093E900EECFE8
:101900006093F1008091E80085FD06C08AE3809332
:10191000E8001092C90203C084E08093C9022FBF7F
:1019200021E030E004C081E0828320E030E0C901A2
:101930000895EDE6F2E088E0DF011D928A95E9F76F
:1019400010926F0288EE93E0A0E0B0E08093700206
:1019500090937102A0937202B0937302109274027A
:101960008FEA91E090936E0280936D02E5E7F2E0DA
:1019700081E5DF011D928A95E9F70895EE0FFF1FBB
:101980000590F491E02D09942F923F924F925F922F
:101990006F927F928F929F92AF92BF92CF92DF927F
:1019A000EF92FF920F931F93CF93DF93CDB7DEB7E4
:1019B000CA1BDB0B0FB6F894DEBF0FBECDBF099478
:1019C0002A88398848885F846E847D848C849B84CF
:1019D000AA84B984C884DF80EE80FD800C811B81DD
:1019E000AA81B981CE0FD11D0FB6F894DEBF0FBE0C
:1019F000CDBFED01089511E0CCEAD1E003C0FE01B6
:0E1A0000BFDF2296CE3AD107D1F7F894FFCF80
:101A0E004920476F74206120537973657820286CC4
:101A1E00656E6774683D256429202100456D7074DC
:101A2E0079205379736578205265636965766564AC
:101A3E00006E6F7465232530325800F07D3333000D
:101A4E00F700000000000000000000000000000091
:101A5E000000000000000000000000000000000078
:101A6E000000000000000000000000000000000068
:101A7E000000000000000000000000000000000058
:101A8E000000000000000000000000F07E7F060253
:101A9E007D030D010100000001F7FF00000000C4EE
:101AAE0009FA090009210910093B0900000000602C
:0C1ABE000CFA09390C280C180C4B0C0019
:00000001FF
